:4000000000400020110000005D0200005D02000010B500F02BF9C046F8B5234C1223236001F06EFC214801F043FF012001F088FC182001F087FB1E4A1E4B1A601E4D80264A
:40004000F6052E601D4A116802230B4313601C4A1C4B1A6000271C4B1F601C4A136808218B431360FA20C00001F016FC184801F009FCE0221201174B1A60174A174B1A6031
:4000800080221206164B1A60164B1F604022164B1A601649082001F0A5FB082001F08CFB2E6011232360F8BD30001040001BB7000600008004010B400C020B4078002E4075
:4000C0002D3E00007C002E4064F02E406CF02E40DC0500000003014040FF00800000014008010B4000010B4008010140591A000010B572B600221C4B1A6000240FE01B4837
:400100006200131959000B00411889881A5AC31858880004104300F09BF80134E4B2012CEDD9EE221206124B1A60EE221204114B1A6099231B04104A1360104A1360104AD2
:40014000117806230B43DBB213700E4A0E4B1A6030220E4B1A60902292020D4B1A60FFF75BFF00F065F810BD6CF02E4094220000000002400003024000500F4030500F4028
:4001800000700F403600D80008000440000304400803044010B5064C2378002B07D1054B002B02D0044800E000BF0123237010BD48010020000000008C220000084B10B5F0
:4001C000002B03D00749084800E000BF07480368002B00D110BD064B002BFBD09847F9E7000000004C0100208C220000C00000200000000000B589B062B600F081F801A826
:4002000000F00AF93C2000F07FF800F08BF801A800F094F8022000F00DF900F05DF9052302220221014800F069FAFEE7902200000323044A1360044A13600022034B1A60DE
:400240007047C0463000304030003140000E3F4010B50A00002102F010F810BD10B501F0D7FF03680C2B00D1FEE7FEE770B50F4E0F4D13E029686B68AC68002202E001C95C
:4002800001C30432A242FAD1E868002202E0002102C304328242FAD11035013E002EE9D101F0BCFFFFF7A6FFFEE7C046010000002C26000010B50E4A136801218B431360AA
:4002C00000230AE0032B03D89A000A49505800E009489900094A885001332F2BF2D9FFF707FF034A116801230B43136010BDC04600001040000000005D02000000000020BC
:4003000010B501F011FC10BD10B53D2804D13C3801F000FA3D2003E0002001F0FBF93C2010BDC04610B5002001F000FAFA20400001F090FA012001F0F9F910BD70B50400BC
:400340003C20FFF7E1FF0500FFF7ECFF32220021280001F0F9FC3221AE2001F083FD3221D52001F07FFD3221802001F07BFD3221D32001F077FD3221206801F073FD606890
:400380003F2804DD3221002001F06CFD02E0322101F068FD3221A06801F064FDE068C82801D0C02803D1322101F05CFD03E03221C02001F057FD3221DA2001F053FD322152
:4003C000206901F04FFD3221812001F04BFD3221606901F047FD3221A42001F043FDA369A72B04D13221A72001F03CFD03E03221A62001F037FD32218D2001F033FD3221E5
:40040000142001F02FFD3221AF2001F02BFD322001F0FCFC70BDC046002303604360A13383602733C360B63B03617433436120338361704710B50400322200213C2001F04C
:4004400083FC3221002001F00DFD3221202001F009FD0F202040322101F004FD322001F0D5FC10BD10B504003C20FFF74DFF50235B421C43E4B2322200213C2001F064FCC2
:400480003221002001F0EEFC3221200001F0EAFC322001F0BBFC10BD70B5040910231C430234E4B20F2505403C20FFF72DFF322200213C2001F048FC3221002001F0D2FC1E
:4004C0003221200001F0CEFC3221280001F0CAFC322001F09BFC70BD70B53C20FFF714FF322200213C2001F02FFC3221AE2001F0B9FC322001F08AFC002521E02800FFF74A
:40050000B1FF0020FFF7C8FF3D20FFF7FDFE322200213D2001F018FC002409E03221C02001F0A0FC3221002001F09CFC0134E4B263B2002BF2DA322001F068FC0135EDB2ED
:40054000072DDBD970BDC046F0B54F464646C0B483B005001400013AD2B23F2A00D9B9E0402800D9B8E0302900D9B7E05A1ED2B22F2A00D9B4E04022521A934200DDB1E0CB
:400580003022121A944200DDAEE0002908D04A1ED017072630408218D210D2B2904601E00022904607260E40B100524A52589746FE260AE0FC2608E0F82606E0F02604E07B
:4005C000E02602E0C02600E0FF26DA08914607221A4001929300484AD3589F46032301930DE0072301930AE00F23019307E01F23019304E03F23019301E07F2301934046DB
:40060000FFF730FF2800FFF747FF3D20FFF77CFE002711E0322200213D2001F095FB3221C02001F01FFC3221300001F01BFC322001F0ECFB7B1CDFB2A742EBD3002723E00C
:400640004346F8180130C0B2FFF70CFF2800FFF723FF3D20FFF758FE002611E0322200213D2001F071FB3221C02001F0FBFB3221FF2001F0F7FB322001F0C8FB0136F6B2BA
:40068000A642EBD37B1CDFB24F45D9D3380040440130C0B2FFF7E6FE2800FFF7FDFE3D20FFF732FE002511E0322200213D2001F04BFB3221C02001F0D5FB3221019801F067
:4006C000D1FB322001F0A2FB0135EDB2A542EBD300200AE0012008E0022006E0032004E0042002E0052000E0052003B00CBC90469946F0BDA0220000C0220000F0B585B027
:4007000006000F0014001D000922E24901A801F0ABFD082D00D90825002304E0F15C01AAD1540133DBB2AB42F8D37B1EDBB2052B01D900F0E8FF631EDBB2072B01D900F0F2
:40074000E4FF3800FFF78EFEE400013CE0B2FFF7A3FE3D20FFF7D8FD002400F0CCFF203BDAB25A2A01D900F0C4FF9300CA4AD3589F46322200213D2001F0E6FA3221C02006
:4007800001F070FBC54B585D322101F06BFB322001F03CFB0135EDB200E00025072DE8D900F0A7FF322200213D2001F0CDFA3221C02001F057FBB94B585D322101F052FB45
:4007C000322001F023FB0135EDB200E00025072DE8D900F08EFF322200213D2001F0B4FA3221C02001F03EFB2B000833AB4AD05C322101F037FB322001F008FB0135EDB266
:4008000000E00025072DE6D900F073FF322200213D2001F099FA3221C02001F023FB2B0008339E4AD05C322101F01CFB322001F0EDFA0135EDB200E00025072DE6D900F00A
:4008400058FF322200213D2001F07EFA3221C02001F008FB2B001033904AD05C322101F001FB322001F0D2FA0135EDB200E00025072DE6D900F03DFF322200213D2001F040
:4008800063FA3221C02001F0EDFA2B001033834AD05C322101F0E6FA322001F0B7FA0135EDB200E00025072DE6D900F022FF322200213D2001F048FA3221C02001F0D2FA7E
:4008C0002B001833754AD05C322101F0CBFA322001F09CFA0135EDB200E00025072DE6D900F007FF322200213D2001F02DFA3221C02001F0B7FA2B001833684AD05C32218C
:4009000001F0B0FA322001F081FA0135EDB200E00025072DE6D900F0ECFE322200213D2001F012FA3221C02001F09CFA2B0020335A4AD05C322101F095FA322001F066FA6A
:400940000135EDB200E00025072DE6D900F0D1FE322200213D2001F0F7F93221C02001F081FA2B0020334D4AD05C322101F07AFA322001F04BFA0135EDB200E00025072D0A
:40098000E6D900F0B6FE322200213D2001F0DCF93221C02001F066FA2B0028333F4AD05C322101F05FFA322001F030FA0135EDB200E00025072DE6D900F09BFE32220021A8
:4009C0003D2001F0C1F93221C02001F04BFA2B002833324AD05C322101F044FA322001F015FA0135EDB200E00025072DE6D900F080FE322200213D2001F0A6F93221C020B4
:400A000001F030FA2B003033244AD05C322101F029FA322001F0FAF90135EDB200E00025072DE6D900F065FE322200213D2001F08BF93221C02001F015FA2B003033174A4D
:400A4000D05C322101F00EFA322001F0DFF90135EDB200E00025072DE6D900F04AFE322200213D2001F070F93221C02001F0FAF92B003833094AD05C322101F0F3F9322004
:400A800001F0C4F90135EDB200E00025072DE6D900F02FFE4C240000E022000058240000322200213D2001F04FF93221C02001F0D9F92B003833E04AD05C322101F0D2F9B4
:400AC000322001F0A3F90135EDB200E00025072DE6D900F00EFE322200213D2001F034F93221C02001F0BEF92B004033D24AD05C322101F0B7F9322001F088F90135EDB210
:400B000000E00025072DE6D900F0F3FD322200213D2001F019F93221C02001F0A3F92B004033C54AD05C322101F09CF9322001F06DF90135EDB200E00025072DE6D900F030
:400B4000D8FD322200213D2001F0FEF83221C02001F088F92B004833B74AD05C322101F081F9322001F052F90135EDB200E00025072DE6D900F0BDFD322200213D2001F0E9
:400B8000E3F83221C02001F06DF92B004833AA4AD05C322101F066F9322001F037F90135EDB200E00025072DE6D900F0A2FD322200213D2001F0C8F83221C02001F052F9A6
:400BC0002B0050339C4AD05C322101F04BF9322001F01CF90135EDB200E00025072DE6D900F087FD322200213D2001F0ADF83221C02001F037F92B0050338F4AD05C322152
:400C000001F030F9322001F001F90135EDB200E00025072DE6D900F06CFD322200213D2001F092F83221C02001F01CF92B005833814AD05C322101F015F9322001F0E6F891
:400C40000135EDB200E00025072DE6D900F051FD322200213D2001F077F83221C02001F001F92B005833744AD05C322101F0FAF8322001F0CBF80135EDB200E00025072D2F
:400C8000E6D900F036FD322200213D2001F05CF83221C02001F0E6F82B006033664AD05C322101F0DFF8322001F0B0F80135EDB200E00025072DE6D900F01BFD322200214F
:400CC0003D2001F041F83221C02001F0CBF82B006033594AD05C322101F0C4F8322001F095F80135EDB200E00025072DE6D900F000FD322200213D2001F026F83221C0205B
:400D000001F0B0F82B0068334B4AD05C322101F0A9F8322001F07AF80135EDB200E00025072DE6D900F0E5FC322200213D2001F00BF83221C02001F095F82B0068333E4A96
:400D4000D05C322101F08EF8322001F05FF80135EDB200E00025072DE6D900F0CAFC322200213D2000F0F0FF3221C02001F07AF82B007033304AD05C322101F073F83220A4
:400D800001F044F80135EDB200E00025072DE6D900F0AFFC322200213D2000F0D5FF3221C02001F05FF82B007033234AD05C322101F058F8322001F029F80135EDB200E079
:400DC0000025072DE6D900F094FC322200213D2000F0BAFF3221C02001F044F82B007833154AD05C322101F03DF8322001F00EF80135EDB200E00025072DE6D900F079FC2B
:400E0000322200213D2000F09FFF3221C02001F029F82B007833084AD05C322101F022F8322000F0F3FF0135EDB200E00025072DE6D900F05EFCC046582400003222002119
:400E40003D2000F081FF3221C02001F00BF82B008033D94AD05C322101F004F8322000F0D5FF0135EDB200E00025072DE6D900F040FC322200213D2000F066FF3221C020A8
:400E800000F0F0FF2B008033CB4AD05C322100F0E9FF322000F0BAFF0135EDB200E00025072DE6D900F025FC322200213D2000F04BFF3221C02000F0D5FF2B008833BE4A3F
:400EC000D05C322100F0CEFF322000F09FFF0135EDB200E00025072DE6D900F00AFC322200213D2000F030FF3221C02000F0BAFF2B008833B04AD05C322100F0B3FF3220F3
:400F000000F084FF0135EDB200E00025072DE6D9EFE3322200213D2000F016FF3221C02000F0A0FF2B009033A34AD05C322100F099FF322000F06AFF0135EDB200E000259F
:400F4000072DE6D9D5E3322200213D2000F0FCFE3221C02000F086FF2B009033964AD05C322100F07FFF322000F050FF0135EDB200E00025072DE6D9BBE3322200213D20D9
:400F800000F0E2FE3221C02000F06CFF2B009833894AD05C322100F065FF322000F036FF0135EDB200E00025072DE6D9A1E3322200213D2000F0C8FE3221C02000F052FF73
:400FC0002B0098337C4AD05C322100F04BFF322000F01CFF0135EDB200E00025072DE6D987E3322200213D2000F0AEFE3221C02000F038FF2B00A0336F4AD05C322100F0FA
:4010000031FF322000F002FF0135EDB200E00025072DE6D96DE3322200213D2000F094FE3221C02000F01EFF2B00A033624AD05C322100F017FF322000F0E8FE0135EDB260
:4010400000E00025072DE6D953E3322200213D2000F07AFE3221C02000F004FF2B00A833554AD05C322100F0FDFE322000F0CEFE0135EDB200E00025072DE6D939E3322288
:4010800000213D2000F060FE3221C02000F0EAFE2B00A833484AD05C322100F0E3FE322000F0B4FE0135EDB200E00025072DE6D91FE3322200213D2000F046FE3221C02075
:4010C00000F0D0FE2B00B0333B4AD05C322100F0C9FE322000F09AFE0135EDB200E00025072DE6D905E3322200213D2000F02CFE3221C02000F0B6FE2B00B0332E4AD05C65
:40110000322100F0AFFE322000F080FE0135EDB200E00025072DE6D9EBE2322200213D2000F012FE3221C02000F09CFE2B00B833214AD05C322100F095FE322000F066FEAD
:401140000135EDB200E00025072DE6D9D1E2322200213D2000F0F8FD3221C02000F082FE2B00B833144AD05C322100F07BFE322000F04CFE0135EDB200E00025072DE6D9E0
:40118000B7E2322200213D2000F0DEFD3221C02000F068FE2B00C033074AD05C322100F061FE322000F032FE0135EDB200E00025072DE6D99DE2C04658240000322200217E
:4011C0003D2000F0C1FD3221C02000F04BFE2B00C033DB4AD05C322100F044FE322000F015FE0135EDB200E00025072DE6D980E2322200213D2000F0A7FD3221C02000F077
:4012000031FE2B00C833CE4AD05C322100F02AFE322000F0FBFD0135EDB200E00025072DE6D966E2322200213D2000F08DFD3221C02000F017FE2B00C833C14AD05C322127
:4012400000F010FE322000F0E1FD0135EDB200E00025072DE6D94CE2322200213D2000F073FD3221C02000F0FDFD2B00D033B44AD05C322100F0F6FD322000F0C7FD01353C
:40128000EDB200E00025072DE6D932E2322200213D2000F059FD3221C02000F0E3FD2B00D833A74AD05C322100F0DCFD322000F0ADFD0135EDB200E00025072DE6D918E246
:4012C000322200213D2000F03FFD3221C02000F0C9FD2B00E0339A4AD05C322100F0C2FD322000F093FD0135EDB200E00025072DE6D9FEE1322200213D2000F025FD322102
:40130000C02000F0AFFD2B00E8338D4AD05C322100F0A8FD322000F079FD0135EDB200E00025072DE6D9E4E1322200213D2000F00BFD3221C02000F095FD2B00F033804A1F
:40134000D05C322100F08EFD322000F05FFD0135EDB200E00025072DE6D9CAE1322200213D2000F0F1FC3221C02000F07BFD2B00F833734AD05C322100F074FD322000F0DE
:4013800045FD0135EDB200E00025072DE6D9B0E1322200213D2000F0D7FC3221C02000F061FD6B1CFF33664AD05C322100F05AFD322000F02BFD0135EDB200E00025072DD0
:4013C000E6D996E1322200213D2000F0BDFC3221C02000F047FD2B000933FF33584AD05C322100F03FFD322000F010FD0135EDB200E00025072DE5D97BE1322200213D20A6
:4014000000F0A2FC3221C02000F02CFD2B001133FF334B4AD05C322100F024FD322000F0F5FC0135EDB200E00025072DE5D960E1322200213D2000F087FC3221C02000F064
:4014400011FD2B001933FF333D4AD05C322100F009FD322000F0DAFC0135EDB200E00025072DE5D945E1322200213D2000F06CFC3221C02000F0F6FC2B002133FF33304A45
:40148000D05C322100F0EEFC322000F0BFFC0135EDB200E00025072DE5D92AE1322200213D2000F051FC3221C02000F0DBFC2B002933FF33224AD05C322100F0D3FC322041
:4014C00000F0A4FC0135EDB200E00025072DE5D90FE1322200213D2000F036FC3221C02000F0C0FC2B003133FF33154AD05C322100F0B8FC322000F089FC0135EDB200E00E
:401500000025072DE5D9F4E0322200213D2000F01BFC3221C02000F0A5FC2B003933FF33074AD05C322100F09DFC322000F06EFC0135EDB200E00025072DE5D9D9E0C046CA
:4015400058240000322200213D2000F0FDFB3221C02000F087FC2B004133FF336C4AD05C322100F07FFC322000F050FC0135EDB200E00025072DE5D9BBE0322200213D2057
:4015800000F0E2FB3221C02000F06CFC2B004933FF335F4AD05C322100F064FC322000F035FC0135EDB200E00025072DE5D9A0E0322200213D2000F0C7FB3221C02000F01C
:4015C00051FC2B005133FF33514AD05C322100F049FC322000F01AFC0135EDB200E00025072DE5D985E0322200213D2000F0ACFB3221C02000F036FC2B005933FF33444AB0
:40160000D05C322100F02EFC322000F0FFFB0135EDB200E00025072DE5D96AE0322200213D2000F091FB3221C02000F01BFC2B006133FF33364AD05C322100F013FC3220F6
:4016400000F0E4FB0135EDB200E00025072DE5D94FE0322200213D2000F076FB3221C02000F000FC2B006933FF33294AD05C322100F0F8FB322000F0C9FB0135EDB200E0C5
:401680000025072DE5D934E0322200213D2000F05BFB3221C02000F0E5FB2B007133FF331B4AD05C322100F0DDFB322000F0AEFB0135EDB200E00025072DE5D919E0322233
:4016C00000213D2000F040FB3221C02000F0CAFB2B007933FF330E4AD05C322100F0C2FB322000F093FB0135EDB200E00025072DE5D90134E4B201AB1B5D0A2B01D0FFF745
:401700002EF8002002E0012000E0022005B0F0BD5824000004490A68D2B202239A434000184010430860704700000440044A1368DBB201218B430840184310607047C046D7
:401740000000044010B586B0040000F0BAFB0E4B1B6800930D4B1B680193033C0C4B1B5D02930C4B1B68039304AA0B4B04936B4605930A4B1A600A490A4A11601B6800F052
:40178000A4FB06B010BDC04608010B4000010B40D825000030001040B6EA0000080010401700008004001040024B1B68012018407047C0460C002E401F2318401E3B8340CB
:4017C000014A13607047C04600E100E01F2318401E3B8340014A13607047C04680E100E001BE704770B504000D001F2802D90020FFF7F6FF1034A40080239B059C466444AD
:401800002068256070BDC04670B504000E00032902D90020FFF7E4FF1F2C02D90020FFF7DFFF03252540ED00063500F04AFBA408A400074B9C46644421680323AB4099438B
:401840000B003100A9401943216000F03EFB70BD00E400E010B5040006E0084B586800F027FB074B9C46644480231B029C42F4D8024B9868604300F01BFB10BDC40000208B
:401880000080FFFF10B5034B1B7B584300F010FB10BDC046C400002010B504000F4A116801230B4313600E4A0E4B1A600E4A1368802109020B431360002809D100200CE0BB
:4018C0000120FFF7DFFFFFF76FFF002804D1013C002CF5D1102000E0002010BD60F02E400220000078002E4010002E40034B1868C0231B02184000D00120704700010B4008
:4019000010B50D4B1A6801218A431A601A68022082431A60094A10683024A043203C204310601068093CA043014311601A68802109060A431A6010BD00F02E4000FF2E40A5
:4019400070B51D4B1B6801241C40002802D0012816D02BE0184B19680122914319601968022081431960154B19682E3081432038014319601968093881430A431A6018E031
:401980000D4B1A6802218A431A600C4A10680725A84301431160116830208143103801431160196801220A431A6002E00020FFF717FF200070BDC04600F02E4000FF2E4028
:4019C00010B500F07EFA044A1368C02109020B43136000F07AFA10BD00010B4010B500F070FA08490A68084B1A408024E40122430A600A6813408022120213430B6000F0B4
:401A000064FA10BD00010B40FF3FFFFF70B5050000F057FA0400FFF769FF002803D0FFF7DDFF012100E0002108482840084A1568084B2B40184310601368012901D1FFF7B9
:401A4000BFFF200000F041FA70BDC0460404040010020B40FBFBFBFF10B5244B1B685B0715D5234B5B685B070ED5224B596A042001401F4C62688A4362605A6A82435A62BA
:401A80009B69002B00D098470420FFF7BFFF174B1B685B0518D5164B5B685B0510D5154B596A8022D2001140114842688A434260596A114A0A405A62DB69002B00D0984739
:401AC0008020C000FFF7A2FF084B1B685B030CD5074B5B685B0304D5064B1B6A002B00D098478020C002FFF791FF10BD10020B40D800002064010020FFFBFFFF10B50A2068
:401B0000FFF75AFE10BDC04610B500F01DF810BD10B5044A1368802109060B431360FFF7EDFF10BD0000254010B5064B1B78002B04D1FFF7E9FF0122024B1A70FFF7E8FF7C
:401B400010BDC0468C01002010B50024184B1C60184A194B1A60194B194A1360194A1460194A1460194A1360194B1C600A20FFF72DFE03210A20FFF747FE16490A20FFF7EC
:401B800031FE154B1C60154B1C60154B1C60154B1C60154B1C60154B1C601022144B1A70144B1C80144B1C60144B1C6010BDC046000025407708008060002540070100807E
:401BC0000003254004032540100325400002254004022540D11E0000C80E2540880E2540480F2540080F2540C80F2540880F2540940100209C010020AC010020A001002032
:401C000010B50E4A13685B005B08136000230C490B600C490B600C4804680C49214001600B490B600B490B6010210B4B19701368802109060B43136010BDC04600002540AF
:401C4000680025406C00254060002540FF5CFFFF880F2540C80F25409401002010B504000368002B09D00120FFF70CFE2368013B2360002B03D0002003E0002001E0802076
:401C8000000610BD10B5002839DBC023034208D00022284B1A601032274B1A70002310243DE0C3070FD5244B1B781B072BD5234B1B685B0001D5002300E0012310211E4ADB
:401CC000117001242BE0C30520D4830722D4C30605D51022184B1A70002300241FE0164B1B781B0719D5144B1B78DB0701D5252200E02422104B1A70002300240FE0012395
:401D0000802424060BE00123012408E001238024640004E00023022401E000230024012B02D1FFF76DFF02E0054A064B1A60200010BDC046680025409401002060002540A1
:401D400017030000000F254070B582B004000D001600244B1B78102B40D10A20FFF736FD214B1B68DB0734D4FA239B005E43019600221E4B1A601E4A1E4B1A601E4A1F4BCB
:401D80001A606400FF231C40002D03D12422154B1A7004E02522134B1A7001231C43184B1C600222174B1A60124B1C680823FF3320001840144B1B68C024234018430400E3
:401DC00001A8FFF74BFF2043EED0FFF75BFF040000E008240A20FFF7EFFC00E00424200002B070BD9401002064002540080F254017030000000F2540ED0F0000C00F2540AF
:401E00004002254068002540400F254010B582B0104B1B789B061AD5FA239B00584301900D4B1B689B0601D5182200E010220B4B1A600B4B18681223FF331840040001A871
:401E4000FFF70CFF2043F4D0FFF71CFF00E0042002B010BD940100206400254068002540000F254010B582B00D4B1B789B0613D5FA239B00594301910A4B18600A4B1868F4
:401E80000823FF331840040001A8FFF7E7FE2043F4D0FFF7F7FE00E0042002B010BDC0469401002040022540000F2540000000000230800803D00138FDD1C046C046C046D4
:401EC0007047EFF3108072B6704780F31088704710B5AF4B1B68002B00D09847AD4B1B68DB0702D50022AC4B1A60AC4B1B789B0628D5AB4B1B68DB0507D5AA4A1188C02368
:401F00009B000B431380012300E00023A44A1268D20706D5A34A118890239B000B4313800123002B0FD09D4A1278D20701D5012200E002229B49088802430A800021974A73
:401F4000117000E00023954A1278920600D417E1934A1268D20611D51022934B1A608F4B1B78DB0701D5012300E002238D4A11880B4313801022894B1A7007E1874A1278FF
:401F8000120720D5864A126892070AD50222864B1A60844A118888239B000B431380012311E07E4A1278D20703D525217B4A117009E02421794A11707C4A1268002A02D002
:401FC00014397B4A1160754A1278520700D4AEE0724A1278D20749D5764A1268120727D5754A1268754909681F240C40744909686418141B082C09D8002C16D1714A1168A2
:40200000714B0B401360012308340EE008240CE06B4A11686D48006841186D480068C0B20870116801311160013C002CF0D119E0604A1268520715D5614A11686348006838
:40204000411863480068C0B208701168013111601168594A1268914203D204215D4A116000E001235C495D4A116060E04C4A1268920726D502224C4B1A6059490B681D3235
:402080001A40096880231B020B4000D001239B18544A1168CB1A13601268534B1A60414A118884239B000B431380504B1A68802149020A431A6019684D4A0A401A6001238B
:4020C00035E04C4A1268D2061ED427E0454A1168364A126891421DD2344A1268013A414909688A4204D1402243490A6030490A603C4A11684148006841180978C9B240484F
:402100000160116801311160354A12681F210A40082ADBD11021384A116008E0354A1268520604D52F4B1A682F4B1A600123002B2CD0244A1168244B0B4013600023314A9E
:4021400013601B4A1360304B1B789B070ED5134B1B78DB0701D5092300E00A23114A11880B43138060220D4B1A700FE0274B1B689B0601D5182200E01022164B1A6005E0FF
:40218000064B1B78DB0601D4FFF73AFD10BDC046900100208C0E2540880E2540940100200C0F25409C010020000F254098010020880F2540CC0F2540B4010020080325403A
:4021C000AC01002060002540FFFEFFFFA80100204003254068002540ED0F0000C00F254008022540A4010020A001002004022540FFFFFEFF8C0F2540800F2540B8010020BC
:4022000040022540C80F2540B001002064002540014B18687047C046400100200E4B70B500251E000D4CE41AA410A54204D0AB00F35898470135F8E700F0E6F9084B00257F
:402240001E00084CE41AA410A54204D0AB00F35898470135F8E770BD1426000014260000142600001C260000002310B59A4203D0CC5CC4540133F9E710BD0300821893424E
:4022800002D019700133FAE770470000000000004869000000300F40000400400F400004C8050000C8050000B0050000B4050000B8050000BC050000C0050000C40500001C
:4022C000FE050000FE050000DC050000E2050000E8050000EE050000F4050000FA050000EC16000084120000F2160000F2160000BC13000088130000F2160000F216000016
:402300002013000054130000F2160000F2130000F216000028140000B8120000F2160000CA140000001500003615000072150000A8150000DE150000141600004A160000E1
:4023400080160000B6160000EC120000F2160000F21600005E140000F216000094140000F21600009A070000020800006E080000DA08000046090000B20900001E0A00008E
:402380008A0A0000020B00006E0B0000DA0B0000460C0000B20C00001E0D00008A0D0000F60D0000680E0000D40E00003E0F0000A60F00000E10000076100000DE1000005D
:4023C00046110000AE1100001C120000F2160000F2160000F2160000F2160000F2160000F2160000CC07000038080000A4080000100900007C090000E8090000540A0000BD
:40240000CC0A0000380B0000A40B0000100C00007C0C0000E80C0000540D0000C00D00002C0E00009E0E00000A0F0000720F0000DA0F000042100000AA1000001211000076
:402440007A110000E8110000501200000A0A0A0A0A0A0A0A0A00000000FC12121212FC0000FE929292926C00007C82828282440000FE828282827C0000FE92929292920008
:4024800000FE121212121200007C82929292740000FE10101010FE00008282FEFE8282000070808080807E0000FE10102844820000FE80808080800000FE04080804FE00D0
:4024C00000FE04081020FE00007C828282827C0000FE121212120C00007F454951617E8000FE12121232DC00004C929292926000000202FEFE020200007E808080807E005F
:40250000003E408080403E0000FE40202040FE008042241818244280000E10E0E0100E0000C2E2A2928E8600000000BEBE000000000000C0C0000000000000666600000037
:402540000000007C8200000000000000827C00000086462010CCC200004C54D6D65474000018187E7E1818000018181818181800002828282828280000040202A2121C000D
:4025800000FE82828282FE00000004FEFE00000000F2929292929E00009292929292FE00001E10101010FE00009E92929292F20000FE92929292F20000020202F21A0E00DB
:4025C00000FE92929292FE00009E92929292FE000000000000000000030405060708090A0B0C0E0F101112131415161718191B1C1D1E1F2021222325262728292A2B2E2FF2
:402600003031323334354300F8B5C046F8BC08BC9E467047BD010000B5020000F8B5C046F8BC08BC9E4670479501000040260000C00000208800000078000000000000004B
:4026400000000000010000000000E02EC05D00001800000000366E01F000000004040400000000000000000000000000000000000000000000000000000000000000000075
:4026800006260000000000000000000000000000000000000000000000000000000000000000000000000000000000000000000000000000000000000000000000000000EE
:4026C000E0000020000000000000000000000000000000000000000000000000000000000000000000000000000000000000000000000000000000000000000000000000DA
:402700000000000000000000000000000000000000000000000000000000000000000000000000000000000000000000000000000000000000000000000000000000000099
:402740000000000000000000000000000000000000000000000000000000000000000000000000000000000000000000000000000000000000000000000000000000000059
:402780000000000000000000000000000000000000000000000000000000000000000000000000000000000000000000000000000000000000000000000000000000000019
:4027C00000000000000000000000000000000000000000000000000000000000000000000000000000000000000000000000000000000000000000000000000000000000D9
:020000040001F9
:0200000490303A
:0200000067E9AE
:0200000490402A
:4000000000000000000000000000000000000000000000000000000000000000000000000000000000000000000000000000000000000000000000000000000000000000C0
:400040000000000000000000000000000000000000000000000000000000000000000000000000000000000000000000000000000000000000000000000000000000000080
:0200000490501A
:0C00000000020E23119E00010E307987D3
:0200000490600A
:0100000001FE
:00000001FF